{
  "address": "0x027c0EeC3C38C711d5477218C62cC1BF47a5e8F9",
  "abi": [
    {
      "inputs": [
        {
          "internalType": "address",
          "name": "_tokenA",
          "type": "address"
        },
        {
          "internalType": "address",
          "name": "_tokenB",
          "type": "address"
        }
      ],
      "stateMutability": "nonpayable",
      "type": "constructor"
    },
    {
      "anonymous": false,
      "inputs": [
        {
          "indexed": false,
          "internalType": "uint256",
          "name": "tkA",
          "type": "uint256"
        },
        {
          "indexed": false,
          "internalType": "uint256",
          "name": "tkB",
          "type": "uint256"
        },
        {
          "indexed": false,
          "internalType": "string",
          "name": "",
          "type": "string"
        }
      ],
      "name": "LiquidityAdded",
      "type": "event"
    },
    {
      "anonymous": false,
      "inputs": [
        {
          "indexed": false,
          "internalType": "uint256",
          "name": "tkA",
          "type": "uint256"
        },
        {
          "indexed": false,
          "internalType": "uint256",
          "name": "tkB",
          "type": "uint256"
        },
        {
          "indexed": false,
          "internalType": "string",
          "name": "",
          "type": "string"
        }
      ],
      "name": "LiquidityRemoved",
      "type": "event"
    },
    {
      "anonymous": false,
      "inputs": [
        {
          "indexed": true,
          "internalType": "address",
          "name": "from",
          "type": "address"
        },
        {
          "indexed": true,
          "internalType": "address",
          "name": "to",
          "type": "address"
        },
        {
          "indexed": false,
          "internalType": "uint256",
          "name": "value",
          "type": "uint256"
        }
      ],
      "name": "Transfer",
      "type": "event"
    },
    {
      "inputs": [],
      "name": "TKA",
      "outputs": [
        {
          "internalType": "uint256",
          "name": "",
          "type": "uint256"
        }
      ],
      "stateMutability": "view",
      "type": "function"
    },
    {
      "inputs": [],
      "name": "TKB",
      "outputs": [
        {
          "internalType": "uint256",
          "name": "",
          "type": "uint256"
        }
      ],
      "stateMutability": "view",
      "type": "function"
    },
    {
      "inputs": [
        {
          "internalType": "uint256",
          "name": "amountA",
          "type": "uint256"
        },
        {
          "internalType": "uint256",
          "name": "amountB",
          "type": "uint256"
        }
      ],
      "name": "addLiquidity",
      "outputs": [],
      "stateMutability": "nonpayable",
      "type": "function"
    },
    {
      "inputs": [
        {
          "internalType": "address",
          "name": "_token",
          "type": "address"
        }
      ],
      "name": "getPrice",
      "outputs": [
        {
          "internalType": "uint256",
          "name": "",
          "type": "uint256"
        }
      ],
      "stateMutability": "view",
      "type": "function"
    },
    {
      "inputs": [],
      "name": "liquiTKA",
      "outputs": [
        {
          "internalType": "uint256",
          "name": "",
          "type": "uint256"
        }
      ],
      "stateMutability": "view",
      "type": "function"
    },
    {
      "inputs": [],
      "name": "liquiTKB",
      "outputs": [
        {
          "internalType": "uint256",
          "name": "",
          "type": "uint256"
        }
      ],
      "stateMutability": "view",
      "type": "function"
    },
    {
      "inputs": [
        {
          "internalType": "uint256",
          "name": "amountA",
          "type": "uint256"
        },
        {
          "internalType": "uint256",
          "name": "amountB",
          "type": "uint256"
        }
      ],
      "name": "removeLiquidity",
      "outputs": [],
      "stateMutability": "nonpayable",
      "type": "function"
    },
    {
      "inputs": [
        {
          "internalType": "uint256",
          "name": "amountAIn",
          "type": "uint256"
        }
      ],
      "name": "swapAforB",
      "outputs": [],
      "stateMutability": "nonpayable",
      "type": "function"
    },
    {
      "inputs": [
        {
          "internalType": "uint256",
          "name": "amountBIn",
          "type": "uint256"
        }
      ],
      "name": "swapBforA",
      "outputs": [],
      "stateMutability": "nonpayable",
      "type": "function"
    },
    {
      "inputs": [],
      "name": "tokenA",
      "outputs": [
        {
          "internalType": "contract IERC20",
          "name": "",
          "type": "address"
        }
      ],
      "stateMutability": "view",
      "type": "function"
    },
    {
      "inputs": [],
      "name": "tokenB",
      "outputs": [
        {
          "internalType": "contract IERC20",
          "name": "",
          "type": "address"
        }
      ],
      "stateMutability": "view",
      "type": "function"
    }
  ],
  "transactionHash": "0x45f2fd7c220d7d5934be03bc403ae18937bcf42014a1193b6540428ee4be6828",
  "args": [
    "0xe7f1725E7734CE288F8367e1Bb143E90bb3F0512",
    "0x9fE46736679d2D9a65F0992F2272dE9f3c7fa6e0"
  ],
  "numDeployments": 1,
  "solcInputHash": "c1b3ea5272a9dc0fe204f06469d4c092",
  "bytecode": "0x608060405234801561001057600080fd5b5060405161099538038061099583398101604081905261002f9161007c565b600480546001600160a01b039384166001600160a01b031991821617909155600580549290931691161790556100af565b80516001600160a01b038116811461007757600080fd5b919050565b6000806040838503121561008f57600080fd5b61009883610060565b91506100a660208401610060565b90509250929050565b6108d7806100be6000396000f3fe608060405234801561001057600080fd5b50600436106100a95760003560e01c80635f64b55b116100715780635f64b55b1461011a5780638014a7aa1461012d5780639cd441da146101425780639d7de6b314610155578063e4f1f70a14610168578063ee7b0ef01461017b57600080fd5b80630c55128d146100ae5780630fc63d10146100ca5780634195e4d6146100f557806341976e09146100fe5780635836c2c114610111575b600080fd5b6100b760025481565b6040519081526020015b60405180910390f35b6004546100dd906001600160a01b031681565b6040516001600160a01b0390911681526020016100c1565b6100b760035481565b6100b761010c36600461075b565b610184565b6100b760005481565b6005546100dd906001600160a01b031681565b61014061013b36600461078b565b6101e1565b005b6101406101503660046107a4565b6102a8565b6101406101633660046107a4565b6104a5565b61014061017636600461078b565b610694565b6100b760015481565b6004546000906001600160a01b03908116908316036101b3576000546001546101ad91906107dc565b92915050565b6005546001600160a01b03908116908316036101d9576001546000546101ad91906107dc565b506000919050565b806001546101ef91906107fe565b6000546001546101ff9190610811565b61020991906107dc565b6000546102169190610828565b60028190556005546040516323b872dd60e01b81526001600160a01b03909116916323b872dd9161024e91339130919060040161083b565b6020604051808303816000875af115801561026d573d6000803e3d6000fd5b505050506040513d601f19601f82011682018060405250810190610291919061085f565b506002546000546102a29190610828565b60005550565b600480546040516323b872dd60e01b81526001600160a01b03909116916323b872dd916102db913391309188910161083b565b6020604051808303816000875af11580156102fa573d6000803e3d6000fd5b505050506040513d601f19601f8201168201806040525081019061031e919061085f565b506005546040516323b872dd60e01b81526001600160a01b03909116906323b872dd906103539033903090869060040161083b565b6020604051808303816000875af1158015610372573d6000803e3d6000fd5b505050506040513d601f19601f82011682018060405250810190610396919061085f565b50816000808282546103a891906107fe565b9250508190555080600160008282546103c191906107fe565b90915550506004546040518381526001600160a01b039091169033906000805160206108828339815191529060200160405180910390a36005546040518281526001600160a01b039091169033906000805160206108828339815191529060200160405180910390a37f59c620e0da6b8feb119313a7412dec2b11daa88988c9189714bb22415a19de0f82826040516104999291909182526020820152606060408201819052601a908201527f53652061677265676f206c6971756964657a20616c20506f6f6c000000000000608082015260a00190565b60405180910390a15050565b816000808282546104b69190610828565b9250508190555080600160008282546104cf9190610828565b90915550506004805460405163a9059cbb60e01b81523392810192909252602482018490526001600160a01b03169063a9059cbb906044016020604051808303816000875af1158015610526573d6000803e3d6000fd5b505050506040513d601f19601f8201168201806040525081019061054a919061085f565b5060055460405163a9059cbb60e01b8152336004820152602481018390526001600160a01b039091169063a9059cbb906044016020604051808303816000875af115801561059c573d6000803e3d6000fd5b505050506040513d601f19601f820116820180604052508101906105c0919061085f565b506004546040518381526001600160a01b039091169033906000805160206108828339815191529060200160405180910390a36005546040518281526001600160a01b039091169033906000805160206108828339815191529060200160405180910390a37f48baec888428b668468fbbfd88c5fa29b328aefd9dd7518b88fdf6006d1afaaf82826040516104999291909182526020820152606060408201819052601b908201527f53652072657469726f204c6971756964657a2064656c20506f6f6c0000000000608082015260a00190565b600154816000546106a59190610828565b6000546001546106b59190610811565b6106bf91906107dc565b6106c99190610828565b60038190556005546040516323b872dd60e01b81526001600160a01b03909116916323b872dd9161070191339130919060040161083b565b6020604051808303816000875af1158015610720573d6000803e3d6000fd5b505050506040513d601f19601f82011682018060405250810190610744919061085f565b506003546001546107559190610828565b60015550565b60006020828403121561076d57600080fd5b81356001600160a01b038116811461078457600080fd5b9392505050565b60006020828403121561079d57600080fd5b5035919050565b600080604083850312156107b757600080fd5b50508035926020909101359150565b634e487b7160e01b600052601160045260246000fd5b6000826107f957634e487b7160e01b600052601260045260246000fd5b500490565b808201808211156101ad576101ad6107c6565b80820281158282048414176101ad576101ad6107c6565b818103818111156101ad576101ad6107c6565b6001600160a01b039384168152919092166020820152604081019190915260600190565b60006020828403121561087157600080fd5b8151801515811461078457600080fdfeddf252ad1be2c89b69c2b068fc378daa952ba7f163c4a11628f55a4df523b3efa26469706673582212207050714c4e7c77adcb1252f99eb528dae1e4671841e28dc1b0560518a875b9aa64736f6c63430008140033",
  "devdoc": {
    "kind": "dev",
    "methods": {},
    "version": 1
  },
  "userdoc": {
    "kind": "user",
    "methods": {},
    "version": 1
  },
  "storageLayout": {
    "storage": [
      {
        "astId": 791,
        "contract": "contracts/SimpleDex.sol:SimpleDEX",
        "label": "TKA",
        "offset": 0,
        "slot": "0",
        "type": "t_uint256"
      },
      {
        "astId": 793,
        "contract": "contracts/SimpleDex.sol:SimpleDEX",
        "label": "TKB",
        "offset": 0,
        "slot": "1",
        "type": "t_uint256"
      },
      {
        "astId": 795,
        "contract": "contracts/SimpleDex.sol:SimpleDEX",
        "label": "liquiTKA",
        "offset": 0,
        "slot": "2",
        "type": "t_uint256"
      },
      {
        "astId": 797,
        "contract": "contracts/SimpleDex.sol:SimpleDEX",
        "label": "liquiTKB",
        "offset": 0,
        "slot": "3",
        "type": "t_uint256"
      },
      {
        "astId": 800,
        "contract": "contracts/SimpleDex.sol:SimpleDEX",
        "label": "tokenA",
        "offset": 0,
        "slot": "4",
        "type": "t_contract(IERC20)729"
      },
      {
        "astId": 803,
        "contract": "contracts/SimpleDex.sol:SimpleDEX",
        "label": "tokenB",
        "offset": 0,
        "slot": "5",
        "type": "t_contract(IERC20)729"
      }
    ],
    "types": {
      "t_contract(IERC20)729": {
        "encoding": "inplace",
        "label": "contract IERC20",
        "numberOfBytes": "20"
      },
      "t_uint256": {
        "encoding": "inplace",
        "label": "uint256",
        "numberOfBytes": "32"
      }
    }
  }
}